:020000040800F2
:1000000098DC0920550300088D880008E577000872
:1000100051850008950B000809AB0008670300082C
:10002000000000000000000000000000ED8E00084D
:100030000D0D000800000000DD8B0008F18E0008A7
:1000400071030008710300087103000871030008C0
:1000500071030008710300087103000871030008B0
:10006000710300087103000871030008110D0008F6
:100070007103000871030008710300087103000890
:100080009D0D00087103000871030008710300084A
:100090007103000871030008710300087103000870
:1000A0007103000871030008710300087103000860
:1000B00000000000C90E0008710300087103000869
:1000C0007103000871030008710300087103000840
:1000D0007103000871030008710300087103000830
:1000E0007103000871030008710300087103000820
:1000F00071030008418F00087103000871030008B4
:10010000710300084D8F0008710300087103000897
:1001100071030008710300087103000871030008EF
:10012000710300087103000871030008F98D0008CD
:1001300071030008A9AA00087103000871030008F0
:1001400071030008710300087103000871030008BF
:1001500071030008710300087103000871030008AF
:10016000710300087103000871030008710300089F
:10017000710300087103000871030008710300088F
:10018000710300087103000871030008710300087F
:10019000710300087103000871030008710300086F
:1001A000710300087103000871030008710300085F
:1001B00071030008000000007103000871030008CB
:1001C00071030008000000007103000871030008BB
:1001D000710300087103000871030008710300082F
:1001E000710300087103000871030008710300081F
:1001F0000000000000000000710300087103000807
:1002000071030008710300087103000871030008FE
:100210007103000871030008D90C0008710300087D
:1002200071030008710300087103000871030008DE
:10023000710300087103000800F002F800F07BF879
:1002400014A696E8000CB244B344DA4501D100F09C
:1002500072F8BAE80F000FA696E83000A5EB040587
:1002600004EB0607AAEB0704A7F101074FEA1515EF
:100270004FEA3414A4F10104AC4201D300F05BF85E
:1002800013F0010F18BFFB1A43F0010300F001F84F
:10029000DBE718473C3005005C3005000A444FF0AE
:1002A000000C10F8013B13F0070408BF10F8014BD5
:1002B0001D1108BF10F8015B641E05D010F8016B1A
:1002C000641E01F8016BF9D113F0080F1EBF10F87E
:1002D000014BAD1C0C1B09D16D1E58BF01F801CBA1
:1002E000FAD505E014F8016B01F8016B6D1EF9D524
:1002F0009142D6D3704700007047000000230024CD
:1003000000250026103A28BF78C1FBD8520728BF25
:1003100030C148BF0B6070471FB544F008F99DE835
:10032000030000F0BBFA00F0E5F91FBD10B5002096
:1003300000F0E9FA10BD00F014FB1146FFF7ECFFE6
:100340003FF0AAFD00F04CFB03B4FFF7EFFF03BC46
:1003500000F07AFA0A4880470A480047FEE7FEE7BD
:10036000FEE7FEE7FEE7FEE7FEE7FEE7FEE7FEE765
:10037000FEE7000004480549054A064B70470000A7
:10038000F58E000839020008985A092098DC0920E7
:10039000985C0920985C092053EA020C00F06980FF
:1003A0002DE9F04B4FF00006002B1FBFB3FA83F589
:1003B00003FA05F424FA05F65E4012BF1643B2FABA
:1003C00082F502FA05F4C5F120051EBF22FA05FCEC
:1003D00044EA0C04203556EA044C4FEA144418BF92
:1003E000641C4FF000084FF00009904271EB030CC1
:1003F00039D3002919BFB1FA81F701FA07F6B0FA2B
:1004000080F700FA07F6C7F120071EBF20FA07FCA5
:1004100046EA0C062037B6FBF4FCA7EB0507103FB5
:1004200007F01F0BCBF120062CFA06F60CFA0BFB9B
:1004300044BFB3460026202FA4BF5E464FF0000BFA
:100440005BEA060C08BF4FF0010B19EB0B0948EBF8
:100450000608ABFB027C06FB02CC0BFB03CCC01BEB
:1004600071EB0C01C1E70B46024641464846BDE828
:10047000F08B13B5084318BF4FF0FF300146AFF3C0
:100480000080BDE81C4070470B460146184600F04E
:10049000B3B900000EB5054614460E4613A000F091
:1004A000C2F9284600F0BFF916A000F0BCF93046AA
:1004B00000F0B9F915A000F0B6F900218DF80B1085
:1004C0000A210DF10A008DF80A1008E094FBF1F200
:1004D00001FB124294FBF1F4303200F8012D002CA4
:1004E000F4DC00F0A0F900F07CF900002A2A2A20B0
:1004F000617373657274696F6E206661696C65649F
:100500003A2000002C2066696C6520002C206C6964
:100510006E65200040EA010310B59B070FD1042A45
:100520000DD310C808C9121F9C42F8D020BA19BABE
:10053000884201D9012010BD4FF0FF3010BD1AB123
:10054000D30703D0521C07E0002010BD10F8013B78
:1005500011F8014B1B1B07D110F8013B11F8014B9F
:100560001B1B01D1921EF1D1184610BD032A40F287
:10057000308010F0030C00F0158011F8013BBCF145
:10058000020F624498BF11F801CB00F8013B38BF5D
:1005900011F8013BA2F1040298BF00F801CB38BF6B
:1005A00000F8013B11F0030300F02580083AC0F089
:1005B000088051F8043B083A51F804CBA0E8081031
:1005C000F5E7121D5CBF51F8043B40F8043BAFF364
:1005D0000080D20724BF11F8013B11F801CB48BFBE
:1005E00011F8012B24BF00F8013B00F801CB48BFF4
:1005F00000F8012B704710B5203AC0F00B80B1E82D
:100600001850A0E81850B1E81850A0E81850203A47
:10061000BFF4F5AF5FEA027C24BFB1E81850A0E850
:10062000185044BF18C918C0BDE810405FEA827C6A
:1006300024BF51F8043B40F8043B08BF7047D20781
:1006400028BF31F8023B48BF11F8012B28BF20F822
:10065000023B48BF00F8012B70474FF0000204290D
:10066000C0F0128010F0030C00F01B80CCF1040CE1
:10067000BCF1020F18BF00F8012BA8BF20F8022B15
:10068000A1EB0C0100F00DB85FEAC17C24BF00F8BB
:10069000012B00F8012B48BF00F8012B70474FF0E9
:1006A000000200B5134694469646203922BFA0E8C2
:1006B0000C50A0E80C50B1F12001BFF4F7AF0907CE
:1006C00028BFA0E80C5048BF0CC05DF804EB8900BF
:1006D00028BF40F8042B08BF704748BF20F8022B02
:1006E00011F0804F18BF00F8012B7047704770471A
:1006F0007047000008487CB578440090074878446B
:10070000009C0546019004E02046016808448047AB
:10071000241DAC42F8D17CBD60300500623005007C
:1007200070B5064600F096F8056806F10B0020F05B
:100730000704B4429CBF002070BD2B466A68BAB162
:100740001068A04210D304F1080188423CBF5068F1
:10075000586007D35168101941601168091B016086
:1007600058601460101D70BD13465268002AE7D10E
:100770002146284600F07EF80028DED170BD70B515
:100780000446051F00F066F80068002C14BF44689A
:1007900070BD002C18BFAC423CBF20466468F8D343
:1007A00001680A18AA4218BF456003D12A680546A5
:1007B0001144016028684119A1421CBF6C6070BDE2
:1007C0006168696021680844286070BD10B500F058
:1007D00049F8006810BD10B5044600F043F8046005
:1007E00010BD10B5002000F0AFF8FFF79FFDBDE889
:1007F0001040012000F028B82DE9F04107461546C9
:100800000E461020FFF78CFF04000AD06760C4E991
:10081000026500F023F80168216004600020BDE853
:10082000F0810120FBE710B5044602E0641C00F0F3
:1008300004F820780028F9D110BD08B569468DF874
:1008400000000320ABBE08BD01491820ABBEFEE787
:100850002600020000487047C85B0220004870472D
:10086000F85B022000487047C05B02207047704769
:100870007047704738B504460A4600206946AFF312
:100880000080002808BF38BD02460099204600F0CD
:100890008DF8012038BD012000F0C8B8F8B5AFF3DD
:1008A0000080054600200C460C2000BF0646A81913
:1008B000A0420DD9324669460020AFF30080070000
:1008C00008BF00F0B3F80098A04218BF0546C4194D
:1008D000FFF7C0FF05600746F01D20F0070046192E
:1008E000284600F00AF8B44208BFF8BDA21B314602
:1008F0003868BDE8F84000F059B800210160416057
:1009000070470C2070472DE9F0410646FFF7A6FF1F
:100910008046454613E016B1E068B0420ED120682B
:100920002860D4E90101D8F8007088472046FFF715
:1009300026FFD8F80000B842EBD100E025462C682D
:10094000002CE8D1BDE8F08110B500F057F8BDE803
:10095000104000F04EB8000000487047C05B022015
:1009600070477546FFF7F8FFAE46050069465346E7
:1009700020F00700854618B020B5FFF7FBFCBDE866
:1009800020404FF000064FF000074FF000084FF0F6
:10099000000BAC46ACE8C009ACE8C009ACE8C00943
:1009A000ACE8C00921F007018D4670470346406856
:1009B0008C46002818BF88423CBF03464068F8D3E5
:1009C00018681844884207D00CF1030020F0070093
:1009D000001D411A521A0146081D0A60FFF7CFBEDA
:1009E00010B50446AFF300802046BDE81040FFF785
:1009F000ABBC002801D0FFF727BF704710B500211E
:100A000002A000F01AF8012010BD00005349474130
:100A10004252543A2041626E6F726D616C2074656F
:100A2000726D696E6174696F6E00000010B500F040
:100A30001DF8BDE81040FFF7DCBF70B505460C4659
:100A40000A2000E06D1CFFF7F8FE35B12878002879
:100A5000F8D102E0641CFFF7F0FE14B12078002802
:100A6000F8D1BDE870400A20FFF7E7BE10B50128B5
:100A700005D0002103A0FFF7E0FF012010BD09A170
:100A8000F8E7000053494752544D454D3A204F7501
:100A900074206F662068656170206D656D6F727976
:100AA000000000003A2048656170206D656D6F722E
:100AB0007920636F7272757074656400F0B583B0ED
:100AC00045F2F474E320C2F209048DF80700002611
:100AD00064250DF10702204680210123ADF8046052
:100AE000009501F06BFA0A2000F058FF01AA204699
:100AF00081210223009501F08BF90A2000F04EFFBE
:100B0000BDF804000DF10B0200BA070CE5208DF8CA
:100B10000B00204680210123ADF80860009501F00C
:100B20004DFA0A2000F03AFF02AA20468121022352
:100B3000009501F06DF90A2000F030FFBDF80800C3
:100B400000EE107A00BA000CB8EE400A9FED0E1AC3
:100B500002EE100A20EE010A9FED0C1AB8EE422AAE
:100B60009FED0B3A30EE010A22EE031AB9EE082A85
:100B700045F2F06031EE021AC2F2090080ED000A7F
:100B800080ED011A03B0F0BD52B82F3B66663BC240
:100B90000000FA3AFEE7000080B542F20003CEF210
:100BA00000031A684EF6005C22F00102CEF2000C3F
:100BB0001A60DCF800204FF6F07E02EA0E024CF2DA
:100BC00040239A4207D0DCF800204CF2702302EA5E
:100BD0000E029A4233D142F20002CEF204021268AF
:100BE000002A53D141F2000CC5F6004CDCF800306D
:100BF0006FF31F33B3F58A6F0FD0DCF8003040F28B
:100C000083426FF31F33934207D0DCF8002040F299
:100C100085436FF31F329A4238D144F60842C5F635
:100C200002020123136000BF1368002B3DD013683C
:100C3000DBB31368CBB31368002BF5D135E0DCF8D8
:100C400000204FF6F0731A404DF220239A421DD136
:100C500048F6F072C4F20062126840F286436FF305
:100C60001F329A421CBF002080BD44F60842C4F2E5
:100C700002620123136000BF1368B3B11368A3B10C
:100C8000136893B11368002BF6D10EE043F208020B
:100C9000C4F2020201231360136833B1136823B155
:100CA000136813B11368002BF6D142F8080C52F800
:100CB000080C401AB0FA80F0400980BD40F21C01D7
:100CC000C2F200014A8949681823002808BF282376
:100CD000CA50704700F062BE4BF20000C4F202003E
:100CE0004168890746BF01685FEA81517047016822
:100CF00021F4007101600221816041F6A060C2F21E
:100D000007000068406801684969084770470000AB
:100D10002DE9F04142F20C0445F61815C4F20264C4
:100D2000C2F202052168B5F85E00014204D1616893
:100D3000014208BFBDE8F08140F2081645F60C07F5
:100D4000C2F20006C0F20207F05D58B1286CB5F897
:100D50006010002200F08AFFB5F85E00206060603D
:100D6000BDE8F081286BB5F85810002200F07EFF36
:100D7000286CB5F8601001224FF0010800F076FFF2
:100D8000286BB5F85810012200F070FF06F80780B4
:100D9000B5F85E0020606060BDE8F081202000F0C2
:100DA0001BBE000072B600BFFEE7000010B540F2A7
:100DB000EC04C2F20004A1690020884761690A209E
:100DC0008847A1690120884761696420BDE8104017
:100DD00008470000B0B582B045F2F474C2F20904CD
:100DE0008DF807000A250DF1070220467021012326
:100DF000009501F0E3F80DF1060220467121012370
:100E0000009501F005F89DF8060002B0B0BD0000A5
:100E100070B540F2EC05C2F200052969022088474E
:100E200045F66826C2F209060128307018D12969F2
:100E300003208847296904460420884704F00F01ED
:100E400040EA012029697080052088472969044605
:100E50000620884704F00F0140EA01213078B18074
:100E6000022818BF70BD29690320884729690446F4
:100E70000420884704F00F0140EA012029697080AE
:100E800005208847296904460620884704F00F0199
:100E900040EA01202969B080092088472969044671
:100EA0000A20884704F00F0140EA01202969F080F8
:100EB0000B208847296904460C20884704F00F015D
:100EC00040EA0120308170BD45F2F860C2F20900AD
:100ED00000F0C6B9CB0704BF0120704710B54FF62C
:100EE0008073C7F6FF7311EA030C4FEAF20418BFD0
:100EF0004FF0010C032C0AD840F2000EC7F6FF7E1B
:100F0000DFE804F01502081011EA0E030FD00120EB
:100F100010BD00BF0EF57F430B401CBF012010BD6C
:100F200005E000BFBCF1000F1CBF012010BD006830
:100F30004161816821F0180111438160002010BDDA
:100F4000002804BF0120704710B50446407F20B937
:100F500000202077204600F031F8022060772079C9
:100F600050B1D4E902122046FFF7B4FF00281CBF9D
:100F7000012010BD0AE000BF206841F6B751C0F261
:100F8000C1414161816821F01801816060790028C8
:100F900014BF20694FF0FF302168D4E905230861B0
:100FA000886820F0600010438860886820F0800026
:100FB0001843886001206077002010BD006843F26C
:100FC0000001C4F20201884218BF704781B040F6A8
:100FD0008840C4F20260016841F4805101600068F9
:100FE00000F480500090009801B0704790F85820AD
:100FF000012A4FF002024DD0F0B501EB410380F819
:10100000592000EBC303D3E90B42D3E90D5603F19A
:10101000280CDB6B120442EA0652A4F1090E42EAE4
:1010200043522F06BEF1020F38BF05F07F473A4307
:101030000368002942EA040112D0DA694FF6F0741D
:10104000C0F2CC0422401143D961DCF80010BEF19B
:10105000010F19619CBF25F07F41196212E000BFAA
:101060005A6A4FF6F074C0F2CC0422401143596220
:10107000DCF80010BEF1010F996103D8416B21F03B
:101080007F4199620121002280F8591080F8582090
:10109000BDE8F04010467047002804BF01207047AB
:1010A00010B5044690F8590028B9002084F858007B
:1010B000204600F031F8022084F8590094E80340FB
:1010C000D4F80CC003684FF6BF72CFF6F8721A401E
:1010D000E369114319430160416B40F207129143E8
:1010E000A26941EA0E0111434163016C4FF6FF72A0
:1010F000914341EA0C010164416BD4E9042321F4DA
:10110000401141EA025141EA43514163002001216B
:10111000E06584F8591010BD00684BF20001C4F27C
:101120000201884218BF704781B040F68840C4F27F
:101130000260016841F480210160006800F48020B1
:101140000090009801B07047B0B5044600F094FDDF
:10115000002C04BF0120B0BD054694F854000228BD
:1011600024D12068416941F004014161052084F8DF
:10117000540000BF2168086980041FD400F07CFD82
:10118000401B0628F6D3A06D40F01000A065032098
:1011900084F8540094F8500000064FF0010001D587
:1011A000616F0873002184F84C10B0BD2020A06549
:1011B0000120002184F84C10B0BD00BF4869012215
:1011C00040F002004861042084F854004FF4FE40CF
:1011D000C86084F8542094F8500000064FF00000D6
:1011E000E0D5636F1A738864002184F84C10B0BD99
:1011F00080B190F8541002290AD1042180F85410CB
:10120000006842F2040241691143416100207047C5
:101210002021816501207047024600284FF001001F
:1012200008BF7047CB0612D5136840F6FF7223EA59
:10123000020203F57B63C3F3C41301F0110198406C
:101240001129516814BF21EA0000084350600020B2
:1012500070470000806D704790F8540070470000A0
:1012600010B5044600680C22034600F57B6162F36A
:101270000B03C1F3C4111A6822FA01F1C90700F087
:10128000C5800169490544BF41695FEA415147D4BE
:101290000169090544BF41695FEA015148D4016908
:1012A000C90444BF41695FEAC14149D401694904A5
:1012B00044BF41695FEA41414AD40169890544BF9D
:1012C00041695FEA81514BD40169890444BF416996
:1012D0005FEA81414ED40169C90544BF41695FEAB3
:1012E000C15163D4A06D002800F09080206841694E
:1012F00041F002014161012084F8540094F850103B
:10130000090644BF616F0873A16E0020002984F8AC
:101310004C0008BF10BD2046BDE81040084700BF84
:101320004FF48061C160A16D41F00101A165AFE79B
:101330004FF40061C160A16D41F00201A165AEE70B
:101340004FF48051C160A16D41F00401A165ADE78A
:101350004FF48041C160A16D41F00801A165ACE787
:101360004FF40071C160616E0029ADD020468847FE
:101370002068A9E74FF40051C16094F85410042983
:101380001ED1416921F400514161416941F00201DE
:101390004161012184F8541094F85020120603D5BD
:1013A000626F117300218164E16EAEE794F8501012
:1013B000090611D4816CD1B904F1540115E000BFC4
:1013C000052184F85410216F00293FF484AF204692
:1013D000884720687FE700BFC16F41B9816C31B990
:1013E000012184F85410616F0C3101220A704FF40E
:1013F0004071C160216E0020002984F84C001CBFA0
:1014000020468847A06D00287FF470AF10BD000013
:1014100070B5044600F030FC002C04BF012070BD04
:1014200000210546206884F84C10022184F85410ED
:10143000416941F00601416120684169C9070BD04B
:1014400000F01AFC401B0528F6D9012003221021C8
:10145000A16584F8542070BD216A426904F1100529
:1014600022F4430211434161E36926CD1A4340F25D
:101470004F0E1143C5F2020E40F24F6C704541EA27
:101480000503C5F2020C1DDC40F24F45C4F2020513
:10149000A84233DC40F24F25C4F20205A84257DCD3
:1014A00040F24F15C4F20205A84200F39580502582
:1014B000C4F20205A84200F0E980D025C4F202057A
:1014C000E2E000BF40F24F45C5F20205A8422DDC24
:1014D00040F24F25C5F20205A8424BDC40F24F1501
:1014E000C5F20205A84200F383805025C5F202052B
:1014F000A84200F0CB80D025C4E000BF40F24F6589
:10150000C4F20205A84245DC40F24F55C4F2020580
:10151000A84277DC40F25045C4F20205A84200F030
:10152000B58040F2D045C4F20205ADE0604543DC31
:1015300040F24F55C5F20205A8426FDC40F250451B
:10154000C5F20205A84200F0A18040F2D04599E022
:1015500040F24F35C4F20205A84269DC40F2502542
:10156000C4F20205A84200F0918040F2D025C4F2F6
:10157000020589E040F24F35C5F20205A84263DC5E
:1015800040F25025C5F20205A84200F07F8040F2EB
:10159000D02577E040F24F75C4F20205A8425DDC29
:1015A00040F25065C4F20205A8426FD040F2D06507
:1015B000C4F2020568E000BF40F24F75C5F20205B3
:1015C000A84257DC40F25065C5F20205A8425DD042
:1015D00040F2D06556E000BF40F25015C4F202055B
:1015E000A84253D040F2D015C4F202054CE000BF2F
:1015F00040F25015C5F20205A84247D040F2D0157E
:1016000040E000BF40F25055C4F20205A8423DD070
:1016100040F2D055C4F2020536E000BF40F250550A
:10162000C5F20205A84231D040F2D0552AE000BFF1
:1016300040F25035C4F20205A84227D040F2D0351E
:10164000C4F2020520E000BF40F25035C5F20205A9
:10165000A8421BD040F2D03514E000BF40F25075D4
:10166000C4F20205A84211D040F2D075C4F20205BE
:101670000AE000BF40F2D075C5F20205A84205D0CD
:1016800040F25075C5F20205A84211D1D4E90951C2
:101690004FF07C76E26A06EB01514FF47C7606EB64
:1016A000051501F07C7105F47C75114329430B434A
:1016B000016C251D01F080211943016426CD236BA7
:1016C00001F07F011143B5F5007F43EA010323D008
:1016D000B5F5806F40F00E81704521DC40F24F413E
:1016E000C4F20201884237DC40F24F21C4F2020109
:1016F00088425BDC40F24F11C4F20201884200F3E1
:1017000099805021C4F20201884200F0F180D0217A
:10171000C4F20201E6E000BF43F40073EAE000BF58
:1017200040F24F41C5F2020188422DDC40F24F21C8
:10173000C5F2020188424BDC40F24F11C5F20201B2
:10174000884200F383805021C5F20201884200F0F4
:10175000CF80D021C4E000BF40F24F61C4F202014B
:10176000884245DC40F24F51C4F20201884277DCE6
:1017700040F25041C4F20201884200F0B98040F2C8
:10178000D041C4F20201ADE0604543DC40F24F516C
:10179000C5F2020188426FDC40F25041C5F20201FD
:1017A000884200F0A58040F2D04199E040F24F31EC
:1017B000C4F20201884269DC40F25021C4F2020105
:1017C000884200F0958040F2D021C4F2020189E005
:1017D00040F24F31C5F20201884263DC40F25021F1
:1017E000C5F20201884200F0838040F2D02177E008
:1017F00040F24F71C4F2020188425DDC40F2506158
:10180000C4F20201884273D040F2D061C4F20201F6
:1018100068E000BF40F24F71C5F20201884257DC18
:1018200040F25061C5F20201884261D040F2D061BD
:1018300056E000BF40F25011C4F20201884257D076
:1018400040F2D011C4F202014CE000BF40F250114E
:10185000C5F2020188424BD040F2D01140E000BFF7
:1018600040F25051C4F20201884241D040F2D051BE
:10187000C4F2020136E000BF40F25051C5F202014D
:10188000884235D040F2D0512AE000BF40F25031BA
:10189000C4F2020188422BD040F2D031C4F20201DE
:1018A00020E000BF40F25031C5F2020188421FD053
:1018B00040F2D03114E000BF40F25071C4F2020196
:1018C000884215D040F2D071C4F202010AE000BF94
:1018D00040F2D071C5F20201884209D040F2507145
:1018E000C5F20201884208BF43F4806302E000BFF2
:1018F00043F48063416C43F28012C3F6C04211404E
:101900001943416400216045816411DC40F24F714C
:10191000C4F2020188421BDC40F25061C4F20201B1
:1019200088422DD040F2D061C4F2020126E000BF0F
:1019300040F24F71C5F20201884215DC40F250615D
:10194000C5F2020188421BD040F2D06114E000BF12
:1019500040F25071C4F20201884211D040F2D071BD
:10196000C4F202010AE000BF40F2D071C5F20201E8
:10197000884205D040F25071C5F20201884202D17E
:101980000021416581650021C167606B01222065EE
:101990000020A16584F8542070BD0000B0B5044655
:1019A00000F06AF9054640F20000C2F2000000783B
:1019B000611C18BF044400BF00F05EF9401BA04248
:1019C000FAD3B0BD40F2EC01C2F200018989814234
:1019D00018BF7047FFF71CBAB0B542F20C05C4F24D
:1019E000026529680446014203D020462C6000F0BD
:1019F0000BF86868204208BFB0BD20466C60BDE8A7
:101A0000B040FFF7DFBF0000704700002DE9F04F46
:101A100082B00F68002F00F01F81804647F67F706C
:101A2000C0F22F0000EA9820002200234FF00109A5
:101A300000260025C4F20262C4464FF0000A00905E
:101A400013E000BFC8464FF001090022C4F2026251
:101A50000F680AF1010A37FA0AF005F1020506F1EA
:101A6000040603F1080300F0F78009FA0AF417EA04
:101A70000400EDD09045019026D0D1F804E04EF05E
:101A80001002122A5CD16FF0030000EA5A0206F03D
:101A90001C0442440F20D2F820E000FA04F7086941
:101AA0002EEA070700F00F00A04038431062DCF870
:101AB00000000322D1F804E0AA4090430EF0030294
:101AC000AA40104345E000BF10684F68A04307F0EC
:101AD000010744F2547407FA0AF7C0F604043843C5
:101AE00004EBCA071060D7F804B06FF0030054F895
:101AF0003AC000EA5B071C20674400EA8B04D7F871
:101B000020E00F2000FA04F20B202EEA020200FA75
:101B100004F422433A62DCF800204FEA4B0703202A
:101B200000FA07F40220A24300FA07F73A43CCF880
:101B30000020D1F804E0BEF1120F10D93EE000BF42
:101B4000DCF800000322AA4090430EF00302AA40F2
:101B50001043D346CCF80000BEF1120F2ED809FA7C
:101B60000EF010F0061F25D04FEA4B070322C146A6
:101B7000DCF8080002FA07F8CA6820EA0800BA4050
:101B80001043CCF808000124DCF8040004FA0BF23E
:101B900090434FEA1E1202FA0BF21043BEF1030FFC
:101BA000CCF804003FF44EAF6FEA0804C8464FF08B
:101BB000010908E0BEF1030F3FF447AF4FEA4B07BE
:101BC0000320B840C443DCF80C008A682040BA40C7
:101BD00010435FEACE02CCF80C007FF536AF42F23C
:101BE000000E2AF00300C4F2026E7044026E03F08D
:101BF00018070F24BC40A243009C04FA07F73A439D
:101C00000266DEF800B001984A684BEA0007D40289
:101C100058BF2BEA0007CEF80070DEF804B094023B
:101C20004BEA000758BF2BEA0007CEF80470DEF835
:101C300084B094034BEA000758BF2BEA0007CEF8A4
:101C40008470DEF88040D20344EA000758BF24EADB
:101C50000007CEF88070F8E602B0BDE8F08F000013
:101C60000069084018BF0120704700001823002AAF
:101C700008BF2823C150704745F69020C2F20900E2
:101C80000068704790F84120202A03D190F8402046
:101C9000012A01D102207047242280F841200268E5
:101CA000136823F001031360136823F48053136057
:101CB000136819431160116841F00101116020217E
:101CC00080F84110002180F840100846704700005D
:101CD00090F84120202A03D190F84020012A01D118
:101CE00002207047242280F841200268136823F004
:101CF00001031360136823F4706343EA0121116048
:101D0000116841F001011160202180F8411000218B
:101D100080F840100846704790F84120202A03D1EF
:101D200090F84020012A01D102207047242280F837
:101D3000412002680029136823F00103136013682F
:101D400023F0807308BF03F180731360116841F0C2
:101D500001011160202180F84110002180F840101D
:101D600008467047002804BF0120704710B504469C
:101D700090F8410028B9002084F84000204600F087
:101D800027FC242084F8410094E80910E2680168E7
:101D9000012A21F00101016023F070610161816875
:101DA00021F40041816003D14CF40041816009E0DD
:101DB0004CF40441022A816004D1416841F400617D
:101DC00003E000BF416821F400614160416804F113
:101DD000100341F0007141F400414160C16821F4F9
:101DE0000041C1600ECB114341EA0321E269C160A9
:101DF000216A11430160016841F001010160002086
:101E00002021606484F84110206384F8420010BDF2
:101E10002DE9F04782B0044690F84100202803D114
:101E200094F84000012803D1022002B0BDE8F087F9
:101E300001201F461546884684F84000FFF71CFF26
:101E4000216806468A69120425D4222084F84100BC
:101E5000102084F84200002060646562678560633A
:101E6000608D40F2000AB0F5807F49F60000CFF6A1
:101E70000040C0F2FF1A27D351F8042F43466FF3F6
:101E80009F2302EA00070AF51055FF2229E000BF50
:101E900088690004D9D520461921324605F0A4FCF2
:101EA000002871D1FFF7E8FE801B21681A28EFD3C4
:101EB00088690004ECD5606C40F02000606420204C
:101EC00084F84100012070E0628D434651F8045FC0
:101ED0006FF39F23D7B243EA074705EA00030AF5E9
:101EE00092353B432B430B602285618D0A9F00296D
:101EF00044D06FF39F284FF0FF0900F5806510E094
:101F0000618D2068218550F8042FC9B22A4042EA29
:101F100001414FF0007241EA080111430160608DF8
:101F200060B320463946324605F08AFD60BB206822
:101F3000616A406A0870606A218D01306062481EE3
:101F40002085618D01396185618D0029E7D000040C
:101F5000E5D12046802100223B46009605F0F4FCA6
:101F600090B9608DB0F5807FCAD32068A4F828901E
:101F700050F8041F52462940CDE700BF204639469D
:101F8000324605F0CDFD18B1012002B0BDE8F08762
:101F900020682021C16142684EF60003CFF600633D
:101FA0001A404260002084F84110002184F8421059
:101FB00084F8401002B0BDE8F08700002DE9F0473A
:101FC00082B0044690F84100202803D194F84000E4
:101FD000012803D1022002B0BDE8F08701201F468E
:101FE0001546884684F84000FFF746FE21680646FD
:101FF0008A69120425D4212084F84100102084F835
:10200000420000206064656267856063608D40F215
:10201000000AB0F5807F49F60000CFF60040C0F21C
:10202000FF1A27D351F8042F43466FF39F2302EA88
:1020300000070AF50055FF2229E000BF8869000467
:10204000D9D520461921324605F0CEFB00286FD1A4
:10205000FFF712FE801B21681A28EFD3886900045D
:10206000ECD5606C40F020006064202084F84100D2
:1020700001206EE0628D434651F8045F6FF39F23A9
:10208000D7B243EA074705EA00030AF590353B4318
:102090002B430B602285618D0A9F002942D06FF38C
:1020A0009F284FF0FF0900F5806510E0618D2068E2
:1020B000218550F8042FC9B22A4042EA01414FF06D
:1020C000007241EA080111430160608D50B320465F
:1020D0003946324605F062FD50BB606A226810F84E
:1020E000011B91626062608D01386085208D01382E
:1020F0002085618D0029E8D00004E6D120468021AA
:1021000000223B46009605F01FFC88B9608DB0F5B3
:10211000807FCBD32068A4F8289050F8041F524643
:102120002940CEE720463946324605F0F9FC18B181
:10213000012002B0BDE8F08720682021C16142681B
:102140004EF60003CFF600631A404260002084F888
:102150004110002184F8421084F8401002B0BDE81C
:10216000F08700002DE9F04F81B0044690F841005F
:1021700020280DD1DDF828A0BAF1000F0CD0DDF831
:102180002C80B8F1000F07D094F8400001280BD143
:10219000022001B0BDE8F08F4FF4007060640120B0
:1021A00001B0BDE8F08F00BF01201D4617468946EB
:1021B00084F84000FFF760FD216806468A69120432
:1021C00047D422200C9A84F8410040204FF0000BA5
:1021D00084F84200C4F844B0C4F824A0A4F82A80CB
:1021E000C4F834B090466FF39F29E8B24A6849F6C4
:1021F000000ACFF6004A49EA004002EA0A02104407
:1022000000F50050486020464146324605F0C6FCC5
:10221000A8B92068012D08D0390A816220464146BC
:10222000324605F0BBFC50B92068F9B28162204605
:10223000402100224346009605F086FB50B384F807
:1022400040B0012001B0BDE8F08F00BF88690004F4
:10225000B7D520461921324605F0C6FA00289ED18E
:10226000FFF70AFD801B21681A28EFD38869000454
:10227000ECD5606C40F020006064202084F84100C0
:10228000002084F8420084F84000012001B0BDE83D
:10229000F08F00BF608D40F2000BB0F5807FC0F280
:1022A000FF1B09D320680BF5105350F8041F01EAF7
:1022B0000A02FF210BE000BF618D2068CBB250F80D
:1022C000042F02EA0A0242EA03420BF592331A4350
:1022D00042EA0902FF270AF580650260218510E0C5
:1022E000618D2068218550F8042FC9B22A4042EA46
:1022F00001414FF00072114341EA09010160608D14
:1023000080B32046042100224346009605F01CFBC2
:1023100000287FF444AF2068616A406A0870606AF0
:10232000218D01306062481E2085618D01396185F3
:10233000618D0029E3D00004E1D1204680210022F4
:102340004346009605F000FB00287FF428AF608D1F
:10235000B0F5807FC4D32068278550F8041F5A4603
:102360002940C8E720464146324605F0D9FB0028FF
:102370007FF415AF20682021C16142684EF600034A
:10238000CFF600631A404260002084F8411084F8C0
:10239000420084F8400001B0BDE8F08F2DE9F04F15
:1023A00081B0044690F8410020280DD1DDF828A026
:1023B000BAF1000F0CD0DDF82C80B8F1000F07D077
:1023C00094F8400001280BD1022001B0BDE8F08F45
:1023D0004FF400706064012001B0BDE8F08F00BFD1
:1023E00001201D461746894684F84000FFF744FC4B
:1023F000216806468A69120449D421200C9A84F87F
:10240000410040204FF0000B84F84200C4F844B073
:10241000C4F824A0A4F82A80C4F834B049F6004ACD
:1024200090466FF39F29E8B2CFF6004A4A6849EA1E
:102430000040AAF580631A40104440F0807040F4D8
:102440000050486020464146324605F0A7FBA8B937
:102450002068012D08D0390A816220464146324663
:1024600005F09CFB50B92068F9B2816220468021BA
:1024700000224346009605F067FA48B384F840B05E
:10248000012001B0BDE8F08F88690004B5D5204671
:102490001921324605F0A8F900289CD1FFF7ECFB82
:1024A000801B21681A28EFD388690004ECD5606C82
:1024B00040F020006064202084F84100002084F86F
:1024C000420084F84000012001B0BDE8F08F00BF59
:1024D000608D0025B0F5807FC0F2FF1508D320681D
:1024E0002B4650F8041F01EA0A02FF210BE000BF4F
:1024F000618D2068CBB250F8042F02EA0A0242EA4A
:1025000003424FF000731A4342EA0902FF270260B8
:10251000218511E0618D2068218550F8042FC9B212
:1025200002EA0A0242EA01414FF00072114341EA15
:1025300009010160608D78B320464146324605F0BE
:102540002DFB00287FF447AF606A226810F8011B5A
:1025500091626062608D01386085208D0138208530
:10256000618D0029E6D00004E4D1204680210022BC
:102570004346009605F0E8F900287FF42CAF608D03
:10258000B0F5807FC6D32068278550F8041F2A46FF
:1025900001EA0A01CAE700BF20464146324605F07B
:1025A000BFFA00287FF417AF20682021C16142687C
:1025B0004EF60003CFF600631A404260002084F814
:1025C000411084F8420084F8400001B0BDE8F08F6B
:1025D000B0B5B8B0044602A80830B821FEF75FF8DD
:1025E000206845F20041C4F20001884202D038B0B0
:1025F000B0BD00BF40200024029002A8039401F067
:10260000FBFE002818BFFEF7CDFB40F68C45C4F258
:102610000265286833A940F002002860286800F0AD
:10262000020033903398C02033901220CDE9340457
:10263000032036900420379040F20040C4F202207C
:10264000FFF7E4F9286940F400102861286900F4D4
:1026500000100190019838B0B0BD000040F20000B9
:1026600045F69021C2F20000C2F2090100780A6822
:10267000104408607047000080B542F20000C4F2C8
:102680000200016841F480710160032000F0C2F88B
:1026900002F0EAFB40F62041C4F20261096844F20C
:1026A0003C7201F00F01C0F60402515CC84040F2D8
:1026B0005C01C2F200010860042003F075FF0F20E6
:1026C00000F008F800281CBF012080BD00F054F87D
:1026D000002080BDB0B588B040F69C41C4F20261D4
:1026E0000A68044642F010020A60096802A801F074
:1026F00010010291029901A902F01AFB02F054FBA9
:102700004DF68361C4F21B31A0FB01014FF0FF3095
:1027100000EB914145F6801041F20003C2F209003E
:1027200040F2E732C4F200030025C0E90031C0E9FD
:102730000252056104F032F80546B0B945F6801042
:10274000C2F2090004F07CF8054670B90F2C0BD8D2
:10275000312021460022002500F030F840F204002C
:10276000C2F20000046000E00125312000F014F8FE
:10277000284608B0B0BD000081B040F69440C4F2D5
:102780000260016841F004010160006800F004008B
:102790000090009801B07047002848BF70471C2285
:1027A00000F01F0102EAD000012202FA01F14EF20C
:1027B0000012CEF2000281507047000010B54EF6B4
:1027C0000C5CCEF2000CDCF80030C3F3022E8EF06D
:1027D0000704042C28BF0424BEF103034FF0FF3E7E
:1027E00038BF00230EFA04F4A14399400EFA03F314
:1027F0009A43114300F00F0200F160430901043ACB
:1028000003F564436244002848BF02F10C031970C9
:1028100010BD00004EF60C51CEF200010A684FF6D2
:10282000FF031A4060F30A2242F0806040F0FD701E
:10283000086070472DE9F04F8EB0002244F2040882
:10284000CDE90222CDE90422C4F20C280692D0F888
:1028500000C0D8F8002040F2010E02F00303012B63
:1028600004BF0123029302F03003102B04BF0123A5
:10287000039302F44073B3F5807F04BF01230493F4
:1028800002F4A023B3F5803FC0F2001E05D19303EC
:10289000734658BF4FF00113059302F0A063B3F1E4
:1028A000807F05D19201724658BF4FF00112069207
:1028B000D8F8042040F2020902F00303012B04BF00
:1028C0000223029302F03003102B04BF0223039370
:1028D00002F44073B3F5807F04BF0223049302F433
:1028E000A023B3F5803FC0F2010905D193034B4605
:1028F00048BF0EF10103059302F0A063B3F1807F9E
:1029000005D192014A4648BF0EF101020692002409
:102910000C94CDE90A44CDE9084458F8042CD8F8C1
:102920000060D2074FF4007304BF40F22223C0F2CC
:102930000443F20705D086EA030292075CBF012434
:102940000894F20602D44FF0000B09E086EA030275
:1029500092065ABF4FF0010BCDF824B04FF0000B98
:1029600006F44072B2F5407F04BF01220A92F203DE
:102970000ED586EA030252030AD4F246B20358BFC8
:102980004FF0011ACDF82CA0F20115D504E000BFDC
:102990004FF0000AF2010FD586EA030252010BD470
:1029A0007546B20158BF4FF001150C95D8F80420B8
:1029B000D6070CD005E000BF0025D8F80420D607C4
:1029C00005D082EA0306B6075CBF02240894D60647
:1029D00007D582EA0306B6065CBF4FF0020BCDF8BE
:1029E00024B002F44076B6F5407F04BF02260A9672
:1029F00041F20040D603C4F20D200AD582EA030654
:102A0000760306D4CA46970348BF0EF1010ACDF8F3
:102A10002CA0D601019109D553405B0106D4920147
:102A200048BF0EF101094D46CDF83090009503687E
:102A3000BCEB000218BF0122DB075946E346ACEBB2
:102A4000000303D184464FF0000906E0066884467F
:102A500026F001064FF00109066042F20040C4F280
:102A60000D200568ED07B3FA83F505D0036809F179
:102A7000020923F00103036002EB420602AB03EB01
:102A8000C6026D09D2F808E008EB8E0757F8040C6F
:102A900020F4807047F8040C58F8040CC00729D1C2
:102AA00053F83640CE46002C55D008EB840050F841
:102AB000047C27F0010740F8047C54683CB108EB23
:102AC000840050F8047C27F0100740F8047CD46898
:102AD0003CB10120A04358F8207027F4803748F813
:102AE00020701269BAB30120904358F8202022F0D8
:102AF00080722EE058F8040CE34520F00100CE4629
:102B000048F8040C27D108EB840050F8042C42F05C
:102B1000020240F8042C39B108EB810050F8042C73
:102B200042F0200240F8042CBAF1000F08D0012036
:102B300020EA0A0058F8202042F4802248F8202099
:102B4000009840B100990120884358F8202042F0B5
:102B5000806248F8202005EB4500019903EBC00492
:102B600053F83020D1E900066368904212D19E42AA
:102B70001D4624D1C868E368984219D108692369C1
:102B8000354698421BD158F8040C40F0010048F833
:102B9000040C42E09E42354611D08868A768B842CE
:102BA00003D0C868E768B84204D11D4607E000BFFB
:102BB000354604E0086927691D46B8422DD108EB67
:102BC000820050F8042C22F0010240F8042C3DB1A0
:102BD00008EB850050F8042C22F0100240F8042C79
:102BE000D4E9020208EB800050F8043C23F480731F
:102BF00040F8043C3AB10120904358F8202022F4D8
:102C0000803248F8202022693AB10120904358F8D8
:102C1000202022F0807248F8202088684FF48073CA
:102C200008EB8000E34550F8042C18BF4FF44073C4
:102C300022F440721A4440F8042C4A69531EFF2BB8
:102C400011D858F8040CC0F3074083420BD9002375
:102C500058F8040CCFF6FF7303EB024220F47F0018
:102C6000104348F8040C58F8040C0A68C007A2F195
:102C7000010258F8223023F0030327D10120E34555
:102C800018BF0320184348F822004A6862B108EBD5
:102C90008200102350F8042CE34518BF302322F0A3
:102CA00020021A4340F8042CCA68D00326D4A2B3E9
:102CB0000120904358F820204FF0807322F0E0620A
:102CC000E34518BF4FF0A06324E000BF43F00100CC
:102CD00048F822004A6842B108EB8200012350F80C
:102CE000042C63F3051240F8042CCA68D00327D4DF
:102CF00092B34FF080736FF0E06425E001209043C1
:102D000058F820204FF4803322F4E022E34518BF26
:102D10004FF4A0231A4448F820200969C80327D497
:102D200000293CD00120884358F820104FF0407211
:102D300021F0E061E34518BF4FF0E06224E000BFFE
:102D40004FF480336FF4E0240120904358F82020A2
:102D500022401A4348F820200969C80316D4F1B16B
:102D60000120884358F82010032262F31A6114E00E
:102D70000120884358F820104FF4403221F4E0211C
:102D8000E34518BF4FF4E022114406E001208843D8
:102D900058F82010032262F3124148F820105FEA2D
:102DA000CE7007D15FEA8E700DD400200EB0BDE862
:102DB000F08F00BFDCF8000040F00100CCF800000C
:102DC0005FEA8E70F1D542F20041C4F20D2108682D
:102DD00040F00100086000200EB0BDE8F08F000058
:102DE000F0B581B00446FEF747FF216D11F00C0FDE
:102DF0004ED005462068016849074FD4002021685D
:102E00000A6A92065AD5086840F002000860A66D6A
:102E1000086A80071BD4002E54D0701C0ED1086A9B
:102E2000800714D4086A80075CBF086A5FEA807074
:102E30000DD4086A8007F2D509E000BFFEF71CFF39
:102E4000401B2168B04240D8086A8007F6D50226A8
:102E50004E62A76D086A80064FD5781C43D067B9CB
:102E6000FEF70AFF2068016A89062FD4006A8006EF
:102E7000F6D442E0006A80063FD5FEF7FDFE411B16
:102E80002068B942F6D9016A8906F3D51EE000BF71
:102E900010206065012001B0F0BD00BF016821F085
:102EA00004010160E06CFEF74FF900281ABF04210D
:102EB0006165002021680A6A9206A4D40221216576
:102EC00001B0F0BDFEF7D8FE2168086A4FF400702B
:102ED0002065606D40F001006065012001B0F0BD2B
:102EE000086A800609D5086A800606D5086A800641
:102EF00044BF086A5FEA8060F2D42665002001B012
:102F0000F0BD0000F0B581B015460F460446FEF74F
:102F1000B3FE216D0646242908D0142930D0022999
:102F200033D1E068B0F1806F05D12EE0386840F011
:102F30000200032829D12068016A890637D5691C57
:102F40002BD065B9FEF798FE2068016A89060FD478
:102F5000006A8006F6D42AE0006A800627D5FEF7CC
:102F60008BFE811B2068A942F6D9016A8906F3D538
:102F70004FF400702065606D40F0010006E000BF76
:102F8000386820F001000228D5D0102060650120AB
:102F900001B0F0BD016A890609D5016A890606D526
:102FA000016A890644BF016A5FEA8161F2D40020A8
:102FB00060652046394605F06DFC18B1012001B06E
:102FC000F0BD00BFB86B48B1386802282AD001288C
:102FD00030D090B3002001B0F0BD00BF2168086A76
:102FE00080071AD4A5B3681C0ED1086A800714D4D0
:102FF000086A80075CBF086A5FEA80700DD4086ABF
:103000008007F2D509E000BFFEF736FE801B21687D
:10301000A84220D8086A8007F6D5002002224A621A
:1030200001B0F0BD206D142807D0242020650020B9
:1030300001B0F0BD206D242804D1042020650020BB
:1030400001B0F0BD14202065002001B0F0BD00BF2C
:10305000FEF712FE2168086A4FF400702065606D6B
:1030600040F001006065012002224A6201B0F0BD1B
:10307000B0B504460068826842F00202826042F203
:103080000042C4F20D2290424FF0080222650FD098
:1030900041F20042C4F20D22904219D14FF20000D9
:1030A000C4F20C20026842F0010202600CE000BF92
:1030B0004FF20002C4F20C22D2F8003402F5806014
:1030C00043F00103C2F8003404F0CCFF002500E017
:1030D00001252046FFF784FE2168886820F002025F
:1030E00028468A60B0BD0000F0B581B00446FEF706
:1030F000C3FD002C00F08980054600206065216D2D
:1031000011B101B0F0BD00BF204600F0DFF841F280
:103110008830A0652068D4E903C2636986684CF2F0
:10312000F401CFF6E00131400026CFF6FF7606EB42
:1031300002426FF0FF0E666B41EA0C010EEB0323B7
:103140001143E7693143194339438160C168226AF9
:1031500021F4E0211143C160216BA26B42EA0141DD
:103160000161E16B41610168626821F47C510EEB01
:10317000022211430160016A89062FD4C168D4E993
:10318000097621F0FF01013F3943A268A369C160BC
:103190000168022B21F0400141EA02010160D0F8F0
:1031A0000811E26A21F0A04141EA060141EA020168
:1031B000C0F80811016841F00101016003D1816884
:1031C00041F002018160E068B0F1806F14BF02201D
:1031D00001202065002001B0F0BD00BF41F289361A
:1031E00003E000BF016A8906C8D5FEF745FD411B13
:1031F0002068B142F6D3016A8906F3D54FF4007016
:103200002065606D40F001006065012001B0F0BDF7
:10321000F0B581B00D460446FEF72EFD216D042960
:1032200028D106462068A76D016A890635D5791C24
:1032300029D067B9FEF720FD2068016A89060FD4FE
:10324000016A8906F6D428E0016A890625D5FEF7C9
:1032500013FD811B2068B942F6D9016A8906F3D5AE
:103260004FF400702065606D40F001006065012042
:1032700001B0F0BD10206065012001B0F0BD00BFBD
:10328000016A890609D5016A890606D5016A890697
:1032900044BF016A5FEA8161F2D48821216529680F
:1032A000082908D16A68C0F83021102242620268F9
:1032B00042F480120260026822F00802114341F0D9
:1032C00040510160002001B0F0BD00002DE9F04345
:1032D000B5B0044668460830B821FDF7E0F920682B
:1032E00041F20041C4F20D21884203D035B0BDE85F
:1032F000F08300BF4FF080604FF0000800906846F8
:10330000CDF8048001F078F8002818BFFDF74AFDD9
:1033100040F68C40C4F20260016840F6000441F4BB
:10332000001101600168C4F2022401F4001130911F
:103330003099416830AD41F01001416041684FF073
:10334000020901F01001309130990168032641F023
:1033500004010160016801F00401309130990168B5
:1033600041F0010101600068294600F00100309041
:103370003098012030902046CDE93198CDE9336670
:10338000FEF744FB0E20CDE930090A2720462946E6
:10339000CDE932863497FEF739FB0C20CDE93009B0
:1033A000A4F500602946CDE932863497FEF72EFB5E
:1033B00035B0BDE8F08300002DE9F04381B015463B
:1033C0000F460446FEF758FC2668B16CD6F810216B
:1033D000C7B18046206D04281AD1306C012301301A
:1033E000A064A06C60642764306863F31D70306073
:1033F000E068B0F1806F11D1B16415F1010918D105
:103400004EE000BF08206065012001B0BDE8F083F8
:1034100010206065012001B0BDE8F083D6F80001FE
:1034200010F4E06F0CBFC6F81021B16415F101096A
:1034300036D0002D64D100BF2068006A10F0060F5E
:1034400072D096F850003870206CA16C471C481E52
:103450002764A064A06C0028EED12068016A890767
:103460003AD4002D60D0B9F1000F2BD1016A890741
:1034700032D4016A89075CBF016A5FEA81712BD48B
:10348000016A8907F2D527E096F850003870206C61
:10349000A16C471C481E2764A064A06C0028DCD0E7
:1034A0002068016A11F0060FEED1016A11F0060FD3
:1034B000EAD1016A11F0060FE6D1016A11F0060F98
:1034C000EFD0E1E7FEF7D8FBA0EB08012068A942A6
:1034D0002DD8016A8907F5D50221416221650020B6
:1034E00001B0BDE8F08300BF96F850003870206C42
:1034F000A16C471C481E2764A064A06C0028ACD0B7
:103500002068006A10F0060FEED100BFFEF7B4FB92
:10351000A0EB08012068A94209D8006A10F0060F44
:10352000F4D0276CE0E700BFFEF7A6FB2068006A36
:103530004FF400702065606D40F00100606501206F
:1035400001B0BDE8F083000040F60C0CC4F2026C40
:10355000DCF8302002F4403282420BD1B0F1011F7E
:1035600068D3DCF8000040F48020CCF80000002094
:10357000704700BFDCF80020B0F5803F22F4E02265
:1035800042EA000240F25C0088BF42F48022CCF89C
:103590000020C2F20000006841F25972CDF2B71269
:1035A000A0FB0202900B0346DCF80010B3F1FF32DF
:1035B00018BF012209041ED4591C1CD0DCF80010CD
:1035C000002B1A4618BF0122090414D49BB1DCF861
:1035D00000105A1E18BF012209040CD4012B0AD076
:1035E000DCF800109A1E18BF0122090403D4022B34
:1035F000A3F10403D8D112B3DCF83010421C090443
:1036000016D4AAB1DCF83010090412D488B1DCF861
:103610003010090410D401280ED0DCF83010021F3D
:10362000090402D402281046E6D1901C10B906E025
:10363000104620B10020704701380028FAD103203D
:103640007047000040F62C00C4F20260016841F0AF
:10365000010101607047000040F63C00C4F20260C6
:10366000006800F440307047B0B540F6284EC4F210
:10367000026EDEF80C50DEF80020DEF80010DEF8F6
:103680000030DEF81040DB06E40804EAE373C1F31F
:1036900003216FF35F3300EE103A02F00302B8EE3D
:1036A000400A6FF35F25012A01F1010C64D0032A5F
:1036B00018BF022A60D1DEF80C109FED4E2A6FF37E
:1036C0005F2101EE101A20EE020AB8EE411A02EE56
:1036D00010CA30EE010A9FED481AB8EE422A20EED9
:1036E000010A30EE010A80EE020ADEF80010C9037A
:1036F00071D5DEF80C10B7EE002AC1F3462101EEB9
:10370000101AB8EE411A31EE021A80EE011ABCEE20
:10371000C11A11EE102A0260DEF80010890360D58C
:10372000DEF80C10B7EE002AC1F3064101EE101AC4
:10373000B8EE411A31EE021A80EE011ABCEEC11A3F
:1037400011EE102A4260DEF8001049034FD5DEF872
:103750000C10B7EE002AC1F3066101EE101AB8EEA4
:10376000411A31EE021A80EE010ABCEEC00A10EED8
:10377000101A8160B0BD00BF5EF8201C090203D49E
:10378000DEF8CC100A0401E05EF8202C110F44F2A0
:10379000D47202EE105AC0F604029FED163A02EB04
:1037A0008101B8EE422A20EE030AB7EE003A91ED0D
:1037B000001A32EE032AB8EE411A03EE10CA32EEB6
:1037C000000AB8EE432A20EE010A80EE020ADEF873
:1037D0000010C9038DD400220260DEF800108903B6
:1037E0009ED400224260DEF800104903AFD40021CD
:1037F0008160B0BD000000390024744BB0B540F6C4
:103800002C4EC4F2026EDEF81050DEF80020DEF816
:103810000010DEF80030DEF81440DB06E40804EAAD
:10382000E373C1F303216FF35F3300EE103A02F04C
:103830000302B8EE400A6FF35F25012A01F1010C83
:1038400064D0032A18BF022A60D1DEF810109FED61
:103850004E2A6FF35F2101EE101A20EE020AB8EE35
:10386000411A02EE10CA30EE010A9FED481AB8EE76
:10387000422A20EE010A30EE010A80EE020ADEF84A
:103880000010C90371D5DEF81010B7EE002AC1F39D
:10389000462101EE101AB8EE411A31EE021A80EEFE
:1038A000011ABCEEC11A11EE102A0260DEF80010F7
:1038B000890360D5DEF81010B7EE002AC1F3064187
:1038C00001EE101AB8EE411A31EE021A80EE011A1A
:1038D000BCEEC11A11EE102A4260DEF80010490356
:1038E0004FD5DEF81010B7EE002AC1F3066101EEE5
:1038F000101AB8EE411A31EE021A80EE010ABCEE3F
:10390000C00A10EE101A8160B0BD00BF5EF8241C22
:10391000090203D4DEF8C8100A0401E05EF8242C82
:10392000110F44F2D47202EE105AC0F604029FED59
:10393000163A02EB8101B8EE422A20EE030AB7EEF6
:10394000003A91ED001A32EE032AB8EE411A03EE66
:1039500010CA32EE000AB8EE432A20EE010A80EEC9
:10396000020ADEF80010C9038DD400220260DEF8DE
:10397000001089039ED400224260DEF80010490343
:10398000AFD400218160B0BD000000390024744B29
:10399000B0B540F6304EC4F2026EDEF81450DEF8D8
:1039A0000020DEF80010DEF80030DEF81840DB06FC
:1039B000E40804EAE373C1F303216FF35F3300EE1D
:1039C000103A02F00302B8EE400A6FF35F25012AB5
:1039D00001F1010C64D0032A18BF022A60D1DEF87D
:1039E00014109FED4E2A6FF35F2101EE101A20EEA6
:1039F000020AB8EE411A02EE10CA30EE010A9FED3B
:103A0000481AB8EE422A20EE010A30EE010A80EE92
:103A1000020ADEF80010C90371D5DEF81410B7EE03
:103A2000002AC1F3462101EE101AB8EE411A31EE18
:103A3000021A80EE011ABCEEC11A11EE102A0260C1
:103A4000DEF80010890360D5DEF81410B7EE002A06
:103A5000C1F3064101EE101AB8EE411A31EE021A16
:103A600080EE011ABCEEC11A11EE102A4260DEF897
:103A7000001049034FD5DEF81410B7EE002AC1F349
:103A8000066101EE101AB8EE411A31EE021A80EE0C
:103A9000010ABCEEC00A10EE101A8160B0BD00BF72
:103AA0005EF8281C090203D4DEF8C4100A0401E001
:103AB0005EF8282C110F44F2D47202EE105AC0F6B0
:103AC00004029FED163A02EB8101B8EE422A20EE85
:103AD000030AB7EE003A91ED001A32EE032AB8EE6F
:103AE000411A03EE10CA32EE000AB8EE432A20EE65
:103AF000010A80EE020ADEF80010C9038DD400220C
:103B00000260DEF8001089039ED400224260DEF8D5
:103B100000104903AFD400218160B0BD000000391E
:103B20000024744B80B584B0024647F6FF73002032
:103B30009B1A70EB0103C0F26D80D2F17F0370EB32
:103B40000103C0F2A380013A61F10001D2F13F0309
:103B50004FF0000373EB0101C0F04084DFE812F086
:103B600040001A023E04C2013E043E043E04DC0151
:103B70003E043E043E043E043E043E043E04340241
:103B80003E043E043E043E043E043E043E043E0425
:103B90003E043E043E043E043E043E043E04F60160
:103BA0003E043E043E043E043E043E043E043E0405
:103BB0003E043E043E043E043E043E043E043E04F5
:103BC0003E043E043E043E043E043E043E043E04E5
:103BD0003E043E043E043E043E043E043E045002C5
:103BE00040F60040C4F20260D0F8E01001F003019A
:103BF000012900F0F982002900F0F0820268022910
:103C000003D112F4806240F09083D0F8F0000329D1
:103C10004BE200BF4FF6FF73C0F23F039B1A70EBFD
:103C2000010363DB4FF6FF73C0F203039B1A4FF0EF
:103C3000000C7CEB010380F281804FF6FF73C0F231
:103C40000F039B1A7CEB0103C0F2EA8082F480230D
:103C50000B4300F0F58182F40022114340F0BE8353
:103C600040F60040C4F20260D0F8E410026801F4AB
:103C70004051920440F12883002940F0258346F604
:103C80000040C0F2DC2004B080BD00BF40F2FF3332
:103C90009B1A4FF0000C7CEB010380F2738041F61D
:103CA000FF739B1A7CEB0103C0F2D88082F480631F
:103CB0000B4300F0DB8182F40062114340F08E83FD
:103CC00040F60040C4F20260D0F8E81011F44071F0
:103CD00000F0A682D0F8F020B1F5807F40F083811B
:103CE00012F0006240F003837DE100BF6FF07E437D
:103CF0009B1A4FF0000C7CEB010380F273806FF095
:103D000078439B1A7CEB0103C0F2C68082F00073FB
:103D10000B4300F0D38182F08062114340F05E8358
:103D200040F60040C4F20260D0F8E410C1F3015143
:103D3000DFE811F05A027602B302BC0282F40043BB
:103D40000B4300F0C98182F480330B4300F0DE8125
:103D500082F40032114340F0418340F60041C4F246
:103D60000261D1F8E800C0F30242042A00F25B824B
:103D70004BF68030DFE812F0DE017802CC0232032D
:103D8000A20200BF82F080030B4300F0D98182F4CD
:103D900080730B4300F0F08182F40072114340F015
:103DA0001D8340F60040C4F20260D0F8E81011F420
:103DB000406100F03582D0F8F020B1F5806F03D17A
:103DC00012F0006240F093820268B1F5006F03D1F7
:103DD00012F4806240F0A982D0F8F000B1F5406F93
:103DE00063E100BF82F480030B4300F0D78182F4CB
:103DF00000030B4300F0E68182F08072114340F033
:103E0000ED8240F60040C4F20260D0F8E010C1F349
:103E10000141DFE811F0D101E9014902050200BFCB
:103E200082F480130B4300F0E58182F40012114309
:103E300040F0D48240F60040C4F20260D0F8E410B2
:103E4000490400F11182D0F8E010C1F38161DFE88C
:103E500011F0DD012D022402E70100BF82F40053BE
:103E60000B4300F0E98182F48042114340F0B682B6
:103E700040F60041C4F20261D1F8E400C0F302222E
:103E8000042A00F2D0814BF68030DFE812F03B02CA
:103E9000E701ED01A702550282F000630B4300F039
:103EA000E98182F08052114340F0988240F600414F
:103EB000C4F20261D1F8E800D1F8F020920700F4D2
:103EC000004202D5002A00F0CC80D1F8F0000001B9
:103ED0004FF0000040F18282002A00F07F82D1F88A
:103EE000F00006E240F60040C4F20260D0F8E010B4
:103EF00001F03001102900F07781002900F05C8189
:103F00000268202903D112F4806240F00E82D0F8BA
:103F1000F0003029C9E000BF40F60040C4F2026062
:103F2000D0F8E01001F0C001402900F05D810029C7
:103F300000F042810268802903D112F4806240F0CF
:103F4000F481D0F8F000C029AFE000BF40F6004196
:103F5000C4F20261D1F8E80000F00700012800F087
:103F60004381002800F014810A68022803D112F46A
:103F7000806240F0DA81D1F8F020032802D112F0FB
:103F800002026ED10A6804284FF0000000F01C8283
:103F900024E200BF40F60040C4F20260D0F8E01016
:103FA00001F00C01042900F01F81002900F00481B8
:103FB0000268082903D112F4806240F0B681D0F87B
:103FC000F0000C2971E000BF40F60040C4F202602E
:103FD000D0F8E01001F44071B1F5807F00F0048169
:103FE000002900F0E9800268B1F5007F03D112F4E6
:103FF000806240F09A81D0F8F000B1F5407F54E043
:1040000040F60041C4F20261D1F8E00000F44060E3
:10401000B0F5806F00F0E880002800F0CD800A68DD
:10402000B0F5006F03D112F4806240F07E810A681F
:10403000B0F5406F4FF0000000F0C681CEE100BF48
:1040400040F60040C4F20260D0F8F010D0F8F02042
:1040500001F44071920740F14381B1F5807F40F057
:104060003F814FF4004004B080BD00BF40F60040E7
:10407000C4F20260D0F8E01011F4402100F09C80FE
:10408000D0F8F020B1F5802F03D112F0006240F09B
:104090002E810268B1F5002F03D112F4806240F046
:1040A0004481D0F8F000B1F5402F00F002024FF04B
:1040B000000008BF900304B080BD00BF40F6004080
:1040C000C4F20260D0F8E810C1F3C101DFE811F0DA
:1040D00060008C00EC00A80040F60041C4F20261D0
:1040E000D1F8E800C0F30232052A00F24D81DFE882
:1040F00012F021007B0007004B014B01E50000BFDF
:1041000001A8FFF77BFB039804B080BD40F6004197
:10411000C4F20261D1F8E40000F00702042A00F2C0
:1041200082804BF68030DFE812F005009F00F3003C
:104130005901C90004B0BDE8804000F01FBE00BFB7
:1041400040F60041C4F20261D1F8E00000F44050B2
:10415000B0F5805F48D078B30A68B0F5005F03D14E
:1041600012F4806240F0E1800A68B0F5405F4FF0E1
:10417000000000F0298131E140F60040C4F2026005
:10418000D0F8E810C1F38111DFE801F0022E8E4A69
:1041900004B0BDE8804000F047BE00BF40F60041DB
:1041A000C4F20261D1F8E00000F44040B0F5804F65
:1041B0001AD0002840F0B28004B0BDE8804000F082
:1041C000F3BD00BF40F60040C4F20260D0F8E0103A
:1041D000C1F30151DFE801F00208682404B0BDE832
:1041E000804000F001BE00BF04B0BDE8804000F098
:1041F0003BBE00BF40F60040C4F20260D0F8E010C1
:10420000C1F38161DFE801F00252490C006846F613
:1042100000418004C0F2DC2101EAE07004B080BDFE
:104220000168890602D4002004B080BD81680902BB
:1042300042D4D0F8F400CFE040F60041C4F202616D
:10424000D1F8E400C0F34212042AECD84BF68030D7
:10425000DFE802F058040AC4720000BF01A8FFF7AB
:1042600097FB019804B080BD01A8FFF7FDF9019804
:1042700004B080BD40F60040C4F20260D0F8E01007
:104280000068800301F0407001D500284DD0B0F1E6
:10429000007F37D0B0F1807FC5D101A8FFF7E4F9E6
:1042A000029804B080BD00BF006846E001A8FFF797
:1042B000A5FA029804B080BD806892E00868800684
:1042C00000F18580AFE700BF026892043ED5B1F5EA
:1042D000805F3BD143F20060C0F26E1004B080BD3D
:1042E000D0F8F02012013FD5B1F5007F3CD1D0F8D5
:1042F000F000C0004FF0FA0058BF4FF4FA4004B08D
:1043000080BD00BF01A8FFF779FA019804B080BD15
:1043100001A8FFF73DFB029804B080BD0A68B0F524
:10432000004F4BD112F4806248D042F20040C0F2FC
:10433000F40004B080BD00BF086842F200414005AF
:10434000C0F2F40101EAE07004B080BD0068B1F58C
:10435000005F00F480624FF0000004BF42F20040B2
:10436000C0F2F4000CE000BF0068B1F5407F00F43B
:1043700000324FF0000004BF4AF22010C0F20700E4
:10438000002A08BF104629E000F4E0420B6842F220
:104390000040B2F5405FC0F2F40002D113F40033E4
:1043A0001CD1096811F4806118BF0146B2F5804F35
:1043B00018BF0021084604B080BD00BF0A68B0F5F0
:1043C000404F4FF0000009D112F0200206D088685B
:1043D000000205D4D1F8F400000402E004B080BD6E
:1043E0008868C0F3036044F2D471C0F6040151F848
:1043F000200004B080BD00002DE9F04F81B00446DC
:10440000006840F6E04BC107C4F2026B20D181077F
:1044100028D4410730D4010738D4C10640D48106DE
:1044200048D4410650D4010658D4C10560D4410295
:1044300068D4810570D4410579D4010500F18280EA
:1044400040F628488004C4F2026800F18A80B4E093
:10445000DBF80010226D21F003011143CBF80010AE
:104460008107D6D5DBF80010626D21F00C011143F5
:10447000CBF800104107CED5DBF80010A26D21F07B
:1044800030011143CBF800100107C6D5DBF800104E
:10449000E26D21F0C0011143CBF80010C106BED57A
:1044A000DBF80010226E21F440711143CBF80010AC
:1044B0008106B6D5DBF80810626E21F007011143C2
:1044C000CBF808104106AED5DBF80010A26E21F43F
:1044D00040611143CBF800100106A6D5DBF80010AF
:1044E000E26E21F440511143CBF80010C1059ED576
:1044F000DBF80810226F21F0C0011143CBF808103F
:10450000410296D5DBF80010626F21F4404111435F
:10451000CBF8001081058ED5DBF80810A26F21F4CE
:1045200040611143CBF8081041057FF586AFDBF8F9
:104530000010E26F21F440211143CBF80010010577
:104540007FF57EAFDBF80810D4F8802021F44071AD
:104550001143CBF8081040F628488004C4F20268E2
:104560002BD5D4F890004FEA701104290CD8DFE85D
:1045700001F0030D171D1D0004F1080004F030FBCD
:104580000646D8B908E000BF012617E004F12C0068
:1045900004F0A0FB064688B9D4F8900006E000BFFE
:1045A000D8F8001041F48031C8F80010DBF804108E
:1045B00021F0E0010843CBF80400002660784006B3
:1045C00002D4374638E000BFD4F894004FEA3020D8
:1045D00004280BD83746DFE800F0030F1B14140043
:1045E00004F1080004F0FCFA0AE000BF01270125ED
:1045F0006078000624D449E004F12C0004F06AFB42
:1046000007463D4677B16078000619D43EE000BF0A
:10461000D8F80000374640F48030C8F80000002F7A
:104620003D46F0D1DBF80400D4F8941020F4E060AB
:1046300008430027CBF8040035466078000625D5EE
:10464000D4F8A4004FEA3030052807D802280BD050
:104650003E468FB1A078C0071CD139E00127012662
:10466000A078C00716D133E004F1080004F0B8FACE
:104670000746002F3E46EDD1DBF80800D4F8A41021
:1046800020F4E04008430027CBF808002E46A0782D
:10469000C0071DD0D4F88800042800F29B81DFE811
:1046A00010F00B0005009D010B000B00D8F8000076
:1046B00040F48030C8F800003D4657B9DBF80400EC
:1046C000D4F8881020F0070008430027CBF8040036
:1046D0003546A07880071FD5D4F88C004FEA3040CB
:1046E000042800F28581DFE810F00B000500870147
:1046F0000B000B00D8F8000040F48030C8F8000030
:10470000B94657B9DBF80800D4F88C1020F4E02043
:1047100008430027CBF80800A946A078400701D439
:104720004D465DE05BF84C0C5FEA407A0BD45BF8D9
:104730004C0C40F004004BF84C0C5BF84C0C00F0B7
:104740000400009000984FF60045CFF6FF7558F82A
:10475000050040F0010048F80500FDF78DFA064617
:1047600058F80500C00707D1FDF786FA801B02281C
:10477000F6D9032703252AE03D4647BBDBF81000A6
:1047800010F4407018D0D4F8BC10884211D0DBF877
:104790001000DBF8101020F4407041F48031CBF8A9
:1047A0001010DBF8101021F48031CBF81010CBF88A
:1047B0001000C00740F02A81DBF81000D4F8BC10CC
:1047C00020F44070084300274D46CBF81000BAF1A2
:1047D000000F05D45BF84C0C20F004004BF84C0C97
:1047E000A078C0061BD5D4F89C004FEAB06003281F
:1047F00000F2DA80DFE800F00702DC0704F10800CD
:1048000004F0EEF90746394657B9DBF80000D4F852
:104810009C1020F0406008430027CBF80000294698
:10482000206802031ED5D4F8982032B1B2F5005F9B
:1048300018BFB2F5805F40F0C7803E4657B1810295
:1048400013D4010225D4C1012ED4810137D44001F3
:1048500040D465E0DBF80430002723F440531A43CA
:10486000CBF804200E468102EBD5D4F8A010B1F5A8
:10487000804F05D1D8F8002042F48032C8F80020DB
:10488000DBF8042022F480421143CBF8041001022B
:10489000D9D5DBF80010D4F8B02021F44011114331
:1048A000CBF80010C101D0D5DBF80010D4F8B4204B
:1048B00021F440311143CBF800108101C7D5DBF85A
:1048C0000810D4F8B82021F018011143CBF80810D3
:1048D000400125D5D4F8AC00B0F5401F0ED0B0F59E
:1048E000001F05D1D8F8000040F40030C8F80000DF
:1048F0003D465FB1E078000716D43DE004F10800C2
:1049000004F06EF90746002F3D46F3D1DBF80400B2
:10491000D4F8AC1020F4401008430027CBF8040072
:104920003546E078000727D5D4F8840058B1B0F1B7
:10493000007F11D0B0F1807F30D1D8F8000040F472
:104940000030C8F8000077B1E078C00618D43846C7
:1049500001B0BDE8F08F00BF04F1080004F040F999
:104960000746002FF0D1DBF80000D4F8841020F0C7
:1049700040700843CBF800002F46E078C006E6D52B
:10498000DBF80800D4F8A81020F400400843CBF866
:104990000800384601B0BDE8F08F00BF0127E0787D
:1049A000C006D4D5ECE700BF0127012138E700BFDE
:1049B000D8F8000040F40030C8F80000002F394655
:1049C0007FF42EAF21E700BF0127012681027FF58A
:1049D00038AF4AE7012701257BE600BF04F12C0030
:1049E00004F078F90746002F3D467FF472AE65E685
:1049F00001274FF0010990E604F12C0004F06AF958
:104A00000746002FB9467FF488AE7BE6FDF734F900
:104A100006460327032500BFDBF8100080073FF59B
:104A2000CBAEFDF729F9801B41F288318842F3D9DA
:104A3000CDE600002DE9F04F81B0002800F01C8188
:104A400042F20008C4F202080446D8F800000D46FD
:104A500000F00F0088420DD2D8F8000020F00F00BF
:104A60002843C8F80000D8F8000000F00F00A84262
:104A700040F00281206840F62049C106C4F2026974
:104A80000DD56169D9F8042002F07002914206D96F
:104A9000D9F8042022F070021143C9F8041001076C
:104AA0000FD52169D9F80020702303EA1212914230
:104AB00007D9D9F8002022F4E06242EA0111C9F8CE
:104AC000001041070DD5E168D9F8002002F070020E
:104AD000914206D9D9F8002022F070021143C9F89A
:104AE000001081070DD5A168D9F8002002F00F024F
:104AF000914206D9D9F8002022F00F021143C9F8DB
:104B00000010C00774D1206881070DD5A168D9F8BD
:104B1000002002F00F02914206D2D9F8002022F0C4
:104B20000F021143C9F80010D8F8001001F00F016E
:104B3000A9420DD9D8F8001021F00F012943C8F877
:104B40000010D8F8001001F00F01A94240F0948045
:104B500041070DD5E168D9F8002002F070029142BA
:104B600006D2D9F8002022F070021143C9F80010D3
:104B700001070FD52169D9F80020702303EA12122A
:104B8000914207D2D9F8002022F4E06242EA0111F2
:104B9000C9F80010C0060DD56069D9F8041001F0FD
:104BA0007001884206D2D9F8041021F07001084340
:104BB000C9F8040000F058F9D9F8001044F23C722A
:104BC00001F00F01C0F60402525C40F20401C2F28F
:104BD0000001096840F25C0320FA02F2C2F200030D
:104BE00008461A6001B0BDE8F04FFDF773BD00BF85
:104BF000606840F61C47C4F2026768B3022831D0EF
:104C0000032835D1D9F874005FEA407A0BD4D9F87B
:104C1000740040F00400C9F87400D9F8740000F082
:104C2000040000900098FDF727F84FF6F03BCFF610
:104C3000FF7B57F80B1049036AD4BAF1000F05D473
:104C4000D9F8740020F00400C9F8740057F81C0C5F
:104C5000800111D5606813E057F81C0C40070BD594
:104C600000200DE057F81C0C800305D5022007E05A
:104C700057F81C1C490503D4012001B0BDE8F08F92
:104C8000396821F0030108433860FCF7F5FF6168DB
:104C90000646032941F2883A25D0022931D069B964
:104CA000386810F00C0F3FF42EAFFCF7E5FF801BC7
:104CB00050454FF00300F3D9DFE700BF386800F03C
:104CC0000C0004283FF41FAFFCF7D6FF801B5045B3
:104CD0004FF00300F2D9D0E7FCF7CEFF801B504520
:104CE0004FF00300C9D8386800F00C000C28F3D14D
:104CF00009E700BFFCF7C0FF801B50454FF00300E1
:104D0000BBD8386800F00C000828F3D1FBE600BFE0
:104D1000064600BF57F80B0040043FF58EAFFCF786
:104D2000ABFF801B02284FF00300F3D9A5E700007A
:104D30001F22026040F62042C4F2026252F8043C94
:104D400003F003034360136803F00F0383601368E9
:104D500003F07003C360D2F800C0702303EA1C1391
:104D60000361526802F07002426142F20000C4F234
:104D70000200006800F00F000860704780B500F086
:104D800073F840F62041C4F20261096844F23C72B3
:104D900001F00F01C0F60402515CC84040F25C0112
:104DA000C2F20001086080BD80B500F05DF840F6F9
:104DB0002041C4F202610A6844F23C7302F00F021F
:104DC000C0F604039A5CD04040F25C02C2F20002DA
:104DD0001060096844F24C72C1F30211C0F604027B
:104DE000515CC84080BD000080B500F03DF840F641
:104DF0002041C4F202610A6844F23C7302F00F02DF
:104E0000C0F604039A5CD04040F25C02C2F2000299
:104E10001060096844F24C72C1F30221C0F604022A
:104E2000515CC84080BD000080B500F01DF840F620
:104E30002041C4F202610A6844F23C7302F00F029E
:104E4000C0F604039A5CD04040F25C02C2F2000259
:104E50001060496844F24C72C1F30211C0F60402BA
:104E6000515CC84080BD000040F6284CC4F2026C82
:104E70005CF80C0C10F00C02DCF8000016D00C2AC8
:104E800004BF00F00300012810D05CF80C0C9FED6B
:104E9000470A00F00C00042842F20040C0F2F4007F
:104EA0001ED0082A18BF00201AE000BF5CF8200CB2
:104EB000000205D4DCF8CC00C0F3033003E000BFEF
:104EC0005CF8200C000F44F2D473C0F6040353F8CE
:104ED0002000002A00EE100A18BF0020B8EE400A99
:104EE0000C2A18BF704780B5DCF80000DCF800E041
:104EF000DCF80010DCF8103000F00302D808C90616
:104F000000EAE170CEF303216FF35F3001EE100A87
:104F1000032AB8EE411A01F1010018BF022A19D183
:104F2000DCF80C109FED222A6FF35F2100EE101ABF
:104F300021EE021AB8EE400A02EE100A31EE000A23
:104F40009FED1C1AB8EE422A20EE010A30EE010A4B
:104F500018E000BFDCF80C109FED153A6FF35F21ED
:104F600002EE101A21EE031AB7EE003AB8EE422A0A
:104F700031EE031A03EE100A31EE021AB8EE432A9C
:104F800021EE000A80EE020ADCF80C00C0F3066095
:104F9000013001EE100AB8EE411A80EE010ABCEEB3
:104FA000C00A10EE100ABDE8804070470000000003
:104FB000000000390024744B002804BF0120704712
:104FC0002DE9F04782B040F6944A0446C4F2026AE2
:104FD0005AF8780C5AF86C1C227800F00C07D006AE
:104FE00001F0030822D42078C0077BD0082F75D0A9
:104FF0000C2F08BFB8F1030F70D0606840F6004670
:10500000B0F5803FC4F2026600F0E882B0F5A81F58
:1050100000F0DC82B0F5A02F40F0F482306840F45C
:1050200080203060306820F48010D6E217B30C2F57
:1050300008BFB8F1010F1DD040F60046C4F2026669
:10504000E1693068002900F0D58140F0010030604E
:10505000FCF712FE054600BF3068400700F1DC8116
:10506000FCF70AFE401B02284FF00300F4D900F0C1
:1050700059BD00BFE069002800F0678540F600498F
:10508000C4F20269656AD9F8080000025ABFDAF86A
:1050900060000004D9F8080000F07040854240F23A
:1050A0007781002F40F0ED84DAF80000400700F12E
:1050B0002383DAF8000040F00400CAF80000DAF8B0
:1050C000000000F0040001900198FEF7C5FADAF83C
:1050D000001021F00401CAF800100FE360680028F6
:1050E00000F03385207880072FD5042F20D00C2F97
:1050F00008BFB8F1020F1BD040F60046C4F20266AA
:10510000E1683068002900F03D8240F48070306032
:10511000FCF7B2FD054600BF306840050CD4FCF733
:10512000ABFD401B02284FF00300F5D900F0FABC9C
:10513000E068002800F009855AF8840C216920F401
:10514000F81040EA01404AF8840C207840F6004705
:105150000007C4F2026771D42078400700F1C680CE
:105160002078800600F12E812078000600F1688109
:105170002078400600F1B281A56B002D00F06E840E
:105180005AF8780C00F00C000C2840F06B825AF8AA
:105190006C1C5AF8600C012D00F0D784E26B01F012
:1051A0000303934240F0D184226CC1F30323013AFC
:1051B000934240F0CA84626C01F47041914240F025
:1051C000C484A26C01466FF35F21013A914240F022
:1051D000BC84E16CC0F3462201398A4240F0B584B8
:1051E000216DC0F3064201398A4240F0AE84616D00
:1051F000C0F306600139884240F0A7845AF85C0C7D
:10520000E16DC0F3CC00884200F028845AF86C0CA1
:1052100020F010004AF86C0CFCF72EFD0546FCF758
:105220002BFDA842FBD0E06DC0004AF85C0C5AF898
:105230006C0C40F0100000F00FBC00BFDAF800006A
:105240005FEA40780BD4DAF8000040F00400CAF8B6
:105250000000DAF8000000F00400019001984FF619
:105260002846CFF6FF76B859C00713D1B85940F099
:105270000100B851FCF700FD054600BFB859C00752
:1052800008D1FCF7F9FC401B0228F7D9032002B033
:10529000BDE8F0876069DAF85C10002800F0E8806B
:1052A000A06901F08052904200F0D08201F040628B
:1052B000B2F1006F00F04984490140F1C082DAF890
:1052C0005C0020F0A050CAF85C00FCF7D5FC054655
:1052D000DAF85C00000140F1B182FCF7CDFC401B24
:1052E00005284FF00300F3D900F01CBCDAF80000E9
:1052F0005FEA40780BD4DAF8000040F00400CAF806
:105300000000DAF8000000F00400019001984FF668
:105310002846CFF6FF76B859C00713D1B85940F0E8
:105320000100B851FCF7A8FC054600BFB859C007FA
:1053300008D1FCF7A1FC401B02284FF00300F5D96F
:1053400000F0F0BBA068C10740F0A880DAF85C105C
:10535000002821F00101CAF85C10DAF85C1021F095
:105360000401CAF85C1040F0A780FCF785FC0546F4
:1053700041F28836DAF85C00800740F13782FCF7AA
:105380007BFC401BB0424FF00300F3D9CAE300BFDF
:10539000D9F80800B5F1404F40F40000C9F8080002
:1053A000D9F8080020F0704040EA0500C9F808006C
:1053B000C0F0AE80D9F80C00216A20F01F0008432D
:1053C000CEE100BFE16A3868002900F0ED8040F4CA
:1053D00080503860FCF750FC054600BF38688004F8
:1053E0003FF5C2AEFCF748FC401B02284FF003001B
:1053F000F4D997E320F001003060FCF73DFC05464E
:10540000306840077FF5EFADFCF736FC401B022803
:105410004FF00300F4D985E3B06840F40000B060B9
:10542000B168606A21F070410143B0F1404FB16052
:10543000C0F09880F068216A20F01F000843D1E195
:10544000216B3868002900F0FB8040F48040386010
:10545000FCF712FC054600BF386800043FF588AE33
:10546000FCF70AFC401B02284FF00300F4D959E373
:1054700021F0A050CAF85C00FCF7FEFB054600BF17
:10548000DAF85C00000140F1F781FCF7F5FB401B06
:1054900005284FF00300F3D944E300BFDAF85C10AD
:1054A000400705D541F00400CAF85C00DAF85C104A
:1054B00041F00100CAF85C00FCF7DEFB054641F252
:1054C000883600BFDAF85C00800731D4FCF7D4FBE3
:1054D000401BB0424FF00300F4D923E3606B002877
:1054E00000F0F680B86840F40000B860B968D4E90C
:1054F000090221F07061B0F1404F41EA0201B96048
:10550000C0F01A81F868216A20F01F00084377E292
:10551000B5F1FF3F40F3FE80D9F80C10206AB5F1D9
:10552000804FC0F0198121F4F84141EA802017E151
:10553000A168DAF85C00090600F1B68020F080006E
:1055400041F28836CAF85C00DAF85C00000540F1E8
:105550005281FCF791FB401BB0424FF00300F3D99E
:10556000E0E200BFB0F1FF3F40F33081F268216A12
:10557000B0F1804FC0F0328122F4F84040EA81203F
:1055800030E100BF20F480703060FCF775FB054609
:10559000306840057FF5D9ADFCF76EFB401B022853
:1055A0004FF00300F4D9BDE220F480503860FCF7DE
:1055B00063FB0546386880047FF5D6ADFCF75CFBDD
:1055C000401B02284FF00300F4D9ABE2306840F4EE
:1055D00080203060306840F480103060306840F4E3
:1055E00080303060FCF748FB054600BF3068800320
:1055F0003FF578ADFCF740FB401B64284FF00300FB
:10560000F4D98FE23168002821F4803131603168AB
:1056100021F480213160316821F480113160E1D1C1
:10562000FCF72AFB0546306880037FF55BADFCF78D
:1056300023FB401B64284FF00300F4D972E200BF43
:1056400020F480403860FCF717FB054638680004FA
:105650007FF58EADFCF710FB401B02284FF00300D6
:10566000F4D95FE2386820F080703860FCF704FB02
:10567000022D05460CD13868800140F10981FCF704
:10568000FBFA401B02284FF00300F4D94AE200BFA6
:105690003868800140F18A81FCF7EEFA401B02284D
:1056A0004FF00300F4D93DE240F0800041F288362B
:1056B000CAF85C00DAF85C00000500F19C80FCF799
:1056C000DBFA401BB0424FF00300F3D92AE200BFDF
:1056D000386820F010003860FCF7CEFA054600BFAD
:1056E000386880067FF548ADFCF7C6FA401B0228F3
:1056F0004FF00300F4D915E2FDF7AEFF20F480313E
:10570000B1F5003F0ED10021B5F1805F38BF012116
:10571000A9E100BFD9F80C00216A20F4787040EAB2
:1057200041101DE00021B1EB157F6FD1B0F5803F36
:1057300040F00B82032196E1B0F1FF3F40F33E8140
:10574000FA68216AB0F1804FC0F0568122F4F84027
:1057500040EA812054E100BF21F4782141EAC030C1
:10576000002FC9F80C0040F0C181DAF800004007B2
:1057700014D4DAF8000040F00400CAF80000DAF8A7
:10578000000000F0040001900198FDF765FFDAF8D1
:10579000001021F00401CAF8001001E0FDF75CFFE1
:1057A00020F48031B1F5003F06D10021B5F1805FD2
:1057B00038BF0121BBE100BF0021B1EB157F31D122
:1057C000B0F5803F40F0C1810321B0E1F068216A6B
:1057D00020F4787040EA411004E000BF22F4782001
:1057E00040EAC130F060FFF7FEBB00BFDAF85C00B2
:1057F000000600F1EB80B8F1000F3FF5B1ACDAF82C
:10580000000020F00400CAF80000A9E4B5F1005F30
:1058100040F20A81002840F02681B5F1405F98BF30
:10582000012120E1B5F1005F40F20881002840F03D
:105830007E81B5F1405F98BF012178E1A069DAF877
:105840005C1021F080510843CAF85C00DAF85C0073
:1058500040F08060CAF85C00FCF70EFA054600BF15
:10586000DAF85C00000107D4FCF706FA401B0528B3
:105870004FF00300F4D955E1B8F1000F3FF56CACDF
:10588000DAF8000020F00400CAF8000064E400BF69
:10589000DAF800005FEA407C0BD4DAF8001041F03F
:1058A0000401CAF80010DAF8001001F004010191B7
:1058B00001994FF60C48CFF6FF7857F808E057F8F3
:1058C00008304FF6037623F4802347F808305AF85F
:1058D0006C3CD4E91102B343D4E90F656FF0FF01CA
:1058E0003343184301EB05214FF47E4308434AF844
:1058F0006C0C5AF8600C0021C8F280010840511E5F
:10590000E26C4FF4FE0503EB4222236D6FF35F213F
:1059100005EB0343656D92B24FF0FE4606EB05655D
:10592000084403F4FE03104405F0FE4518442844DF
:105930004AF8600C5AF86C0C20F010004AF86C0C15
:10594000E06DC0004AF85C0C5AF86C0C40F0100096
:105950004AF86C0C5AF86C0CA16D20F00C0008434E
:105960005FEA4E314AF86C0C05D557F8080040F450
:10597000802047F80800BCF1000F05D4DAF80000D9
:1059800020F00400CAF80000386840F080703860E9
:10599000FCF772F904463868800159D4FCF76CF9B9
:1059A000001B02284FF00300F5D9BBE05AF86C0C3D
:1059B0004FF6FC71CFF6F87108404DE0F868216AA7
:1059C00020F4787040EA41101AE000BFDAF85C0079
:1059D00041F2883620F08000CAF85C00DAF85C00FA
:1059E00000057FF508AFFCF747F9401BB0424FF0C8
:1059F0000300F3D996E000BF22F4782040EAC130DA
:105A0000F860386840F010003860FCF735F905465A
:105A1000386880063FF5B0ABFCF72EF9401B022832
:105A20004FF00300F4D97DE0B5F1805F1AD1022177
:105A3000B0F5803F08BF012115E000BFB5F1805FE0
:105A400074D10221B0F5803F08BF01216FE000BF93
:105A50005AF86C0C40F480204AF86C0C002002B01C
:105A6000BDE8F087012142F20000C4F202000268A2
:105A700022F00F020A440260006800F00F00884222
:105A800063D1D9F8080040F40000C9F80800D9F83B
:105A90000810606A21F070410143B0F1404FC9F82D
:105AA000081007D3D9F80C00216A20F01F00084322
:105AB0001AE000BFB0F1FF3F0ADDD9F80C20216ADF
:105AC000B0F1804F0CD322F4F84040EA81200BE083
:105AD000D9F80C00216A20F4787040EA411003E004
